:020000040000FA
:0600000000002520052888
:080008003E28092016201B20F0
:100010000628031410308500013086000310FE30DE
:100020008600053085008B170B1608000930160274
:10003000031D16280800051125202520252009303C
:100040001702031D1628572808005030940030204E
:1000500030203020302030203020940B272808001A
:100060005930950000000000950B322808008B10D5
:10007000013096074B208600252043288B138C00E7
:10008000030E83128D008B18372883120D0E830008
:100090008C0E0C0E0900160882077E340C34B63420
:1000A0009E34CC34DA34FA340E34FE34E63405109F
:1000B000851409304B20051E5B2800308600053072
:0800C00085008B170B162428A4
:00000001FF
